{"abi":[{"type":"function","name":"giveMeAllowance","inputs":[{"name":"allowance","type":"uint256","internalType":"uint256"}],"outputs":[],"stateMutability":"nonpayable"},{"type":"function","name":"mint","inputs":[{"name":"amount","type":"uint256","internalType":"uint256"}],"outputs":[],"stateMutability":"nonpayable"},{"type":"function","name":"win","inputs":[],"outputs":[],"stateMutability":"nonpayable"},{"type":"event","name":"Winner","inputs":[{"name":"winner","type":"address","indexed":false,"internalType":"address"}],"anonymous":false}],"bytecode":{"object":"0x608060405234801561001057600080fd5b506101c4806100206000396000f3fe608060405234801561001057600080fd5b50600436106100415760003560e01c8063473ca96c14610046578063a0712d6814610050578063b19b332314610063575b600080fd5b61004e610076565b005b61004e61005e366004610133565b6100c9565b61004e610071366004610133565b610114565b33600090815260208190526040902054612710111561009457600080fd5b6040513381527f745c90b656b4aafe296c8ca35aeacfe56cb96c90e1d320e5da643fff1051b6c09060200160405180910390a1565b33600090815260016020526040812080548392906100e8908490610162565b9091555050336000908152602081905260408120805483929061010c90849061017b565b909155505050565b336000908152600160205260408120805483929061010c90849061017b565b60006020828403121561014557600080fd5b5035919050565b634e487b7160e01b600052601160045260246000fd5b818103818111156101755761017561014c565b92915050565b808201808211156101755761017561014c56fea264697066735822122018de90fe09311b026c23bddd4e7fd833fef980dadcc18d5d5dd556bf5a39537964736f6c63430008140033","linkReferences":{}},"methodIdentifiers":{"giveMeAllowance(uint256)":"b19b3323","mint(uint256)":"a0712d68","win()":"473ca96c"},"id":42}