{"abi":[{"type":"function","name":"win","inputs":[],"outputs":[],"stateMutability":"nonpayable"},{"type":"event","name":"Winner","inputs":[{"name":"winner","type":"address","indexed":false,"internalType":"address"}],"anonymous":false}],"bytecode":{"object":"0x6080604052348015600f57600080fd5b5060a08061001e6000396000f3fe6080604052348015600f57600080fd5b506004361060285760003560e01c8063473ca96c14602d575b600080fd5b60336035565b005b6040513381527f745c90b656b4aafe296c8ca35aeacfe56cb96c90e1d320e5da643fff1051b6c09060200160405180910390a156fea26469706673582212208d570112a334bbe54be0aa921c8d90661d79f0c291b65b6d2bd542b6438029cd64736f6c63430008140033","linkReferences":{}},"methodIdentifiers":{"win()":"473ca96c"},"id":38}