{"abi":[{"type":"function","name":"setX","inputs":[{"name":"_x","type":"uint256","internalType":"uint256"}],"outputs":[],"stateMutability":"nonpayable"},{"type":"function","name":"setY","inputs":[{"name":"_y","type":"uint256","internalType":"uint256"}],"outputs":[],"stateMutability":"nonpayable"},{"type":"function","name":"win","inputs":[],"outputs":[],"stateMutability":"nonpayable"},{"type":"function","name":"x","inputs":[],"outputs":[{"name":"","type":"uint256","internalType":"uint256"}],"stateMutability":"view"},{"type":"function","name":"y","inputs":[],"outputs":[{"name":"","type":"uint256","internalType":"uint256"}],"stateMutability":"view"},{"type":"event","name":"Winner","inputs":[{"name":"winner","type":"address","indexed":false,"internalType":"address"}],"anonymous":false}],"bytecode":{"object":"0x608060405234801561001057600080fd5b50610193806100206000396000f3fe608060405234801561001057600080fd5b50600436106100575760003560e01c80630c55699c1461005c5780634018d9aa14610077578063473ca96c1461008c57806368d466b814610094578063a56dfe4a146100a7575b600080fd5b61006560005481565b60405190815260200160405180910390f35b61008a61008536600461011d565b600055565b005b61008a6100b0565b61008a6100a236600461011d565b600155565b61006560015481565b600080541180156100c357506000600154115b6100cc57600080fd5b6001546000546100dc9190610136565b6032146100e857600080fd5b6040513381527f745c90b656b4aafe296c8ca35aeacfe56cb96c90e1d320e5da643fff1051b6c09060200160405180910390a1565b60006020828403121561012f57600080fd5b5035919050565b8082018082111561015757634e487b7160e01b600052601160045260246000fd5b9291505056fea26469706673582212204daac1114ae15f6110e4f9b23e61293e5de925a7804efa91532c2d4c08ce88e264736f6c63430008140033","linkReferences":{}},"methodIdentifiers":{"setX(uint256)":"4018d9aa","setY(uint256)":"68d466b8","win()":"473ca96c","x()":"0c55699c","y()":"a56dfe4a"},"id":39}