{"abi":[{"type":"function","name":"win","inputs":[{"name":"x","type":"uint8","internalType":"uint8"}],"outputs":[],"stateMutability":"nonpayable"},{"type":"event","name":"Winner","inputs":[{"name":"winner","type":"address","indexed":false,"internalType":"address"}],"anonymous":false}],"bytecode":{"object":"0x60806040526000805460ff191660d217905534801561001d57600080fd5b506101328061002d6000396000f3fe6080604052348015600f57600080fd5b506004361060285760003560e01c8063345a442314602d575b600080fd5b603c603836600460d4565b603e565b005b60005460ff9081168201908116600a14609d5760405162461bcd60e51b815260206004820152601d60248201527f496e636f727265637420617267756d656e742070617373656420696e21000000604482015260640160405180910390fd5b506040513381527f745c90b656b4aafe296c8ca35aeacfe56cb96c90e1d320e5da643fff1051b6c09060200160405180910390a150565b60006020828403121560e557600080fd5b813560ff8116811460f557600080fd5b939250505056fea2646970667358221220009a74b3d4b61747c2dcb06c3b4d875a518abe7805d5e328f821bbe2d99034d364736f6c63430008140033","linkReferences":{}},"methodIdentifiers":{"win(uint8)":"345a4423"},"id":41}