{"abi":[{"type":"function","name":"win","inputs":[{"name":"x","type":"uint8","internalType":"uint8"}],"outputs":[],"stateMutability":"nonpayable"},{"type":"event","name":"Winner","inputs":[{"name":"winner","type":"address","indexed":false,"internalType":"address"}],"anonymous":false}],"bytecode":{"object":"0x60806040526000805460ff191660d217905534801561001d57600080fd5b506101318061002d6000396000f3fe6080604052348015600f57600080fd5b506004361060285760003560e01c8063345a442314602d575b600080fd5b603c603836600460d3565b603e565b005b60005460ff90811682019081811614609c5760405162461bcd60e51b815260206004820152601d60248201527f496e636f727265637420617267756d656e742070617373656420696e21000000604482015260640160405180910390fd5b506040513381527f745c90b656b4aafe296c8ca35aeacfe56cb96c90e1d320e5da643fff1051b6c09060200160405180910390a150565b60006020828403121560e457600080fd5b813560ff8116811460f457600080fd5b939250505056fea26469706673582212200c3a1e685cd96c8136d3b82e5daffab87aeb907ce5c8b6ff16e9b37f66bbafbf64736f6c63430008140033","linkReferences":{}},"methodIdentifiers":{"win(uint8)":"345a4423"},"id":40}