{"abi":[{"type":"function","name":"dec","inputs":[],"outputs":[],"stateMutability":"nonpayable"},{"type":"function","name":"get","inputs":[],"outputs":[{"name":"","type":"uint256","internalType":"uint256"}],"stateMutability":"view"},{"type":"function","name":"inc","inputs":[],"outputs":[],"stateMutability":"nonpayable"}],"bytecode":{"object":"0x608060405234801561001057600080fd5b50610109806100206000396000f3fe6080604052348015600f57600080fd5b5060043610603c5760003560e01c8063371303c01460415780636d4ce63c146049578063b3bcfa8214605e575b600080fd5b60476064565b005b60005460405190815260200160405180910390f35b6047607b565b60016000808282546074919060ad565b9091555050565b6001600054111560955760016000808282546074919060c3565b565b634e487b7160e01b600052601160045260246000fd5b8082018082111560bd5760bd6097565b92915050565b8181038181111560bd5760bd609756fea264697066735822122085a1b77af349992c549b4ae2b5858a0ce088948c5148de7558194031d68a3b0764736f6c63430008140033","linkReferences":{}},"methodIdentifiers":{"dec()":"b3bcfa82","get()":"6d4ce63c","inc()":"371303c0"},"id":25}